:400000000080002011000000E90A0000E90A000008B5044B1A6803F53F5302331A6000F083FD00BFFA46004010B5054C237833B9044B13B10448AFF300800123237010BD11
:400040009882FF1F0000000044520000084B10B51BB108490848AFF300800848036803B910BD074B002BFBD0BDE81040184700BF000000009C82FF1F44520000C880FF1F34
:400080000000000038B5464A136801331360454B1B68012B19D101F0FBFD0530C0B201F0C9FD01F043FE0538C0B201F011FE01F0EFFD044601F0F2FD844240D10022394BCC
:4000C0001A600122364B5A6039E0354B5B68012B18D101F0DDFD0538C0B201F0ABFD01F073FE0530C0B201F041FE01F06DFE044601F070FE844222D1294B00225A6001223A
:400100009A601CE0264B9B68012B18D101F00EFE0530C0B201F0DCFD01F056FE0538C0B201F024FE01F002FE044601F005FE844205D101221B4B1A600022194B9A60184B1A
:40014000DA68194B83FB0231D317C3EB610303EBC3039A4202D10022114BDA60104CE368124D5A00D0184100084629448A784978285C00F031FBE26802EB42014B002B4436
:400180009B880B49A1FB03132168B1EB131F03DB002121600132E26001F040FA38BD00BFB482FF1FCC80FF1F398EE33848520000A38B2EBA024A136801331360704700BFB7
:4001C000C482FF1F30B59BB0764B1B68B3F57A7F76DA05460C46744A12680A2A70DC7349684603F0EDFB684601F04CFB14F0020F31D0012D1CD16E4801F044FB694C226860
:400200006C490DA803F0DCFB674D2B68013B04EB830322685A600DA801F034FB664801F031FBE36A0133E3622B6801332B6064E0022D62D1614801F025FB5F4801F022FB81
:4002400059490B68581E574A02EB80020020506001330B6051E014F0010F4ED0012D10D1564801F00FFB544801F00CFB4E490B68581E4C4A02EB80020020506001330B60E1
:400280003BE0022D39D14A4801F0FCFA454C226848490DA803F094FB434D2B68013B04EB830322685A600DA801F0ECFA424801F0E9FAE36A0133E3622B6801332B601CE078
:4002C000B3F57A7F19DB384B1A680A2A15DC37490DA803F075FB0DA801F0D4FA384801F0D1FA354801F0CEFA2F490B682D4A02EB83020020506001330B602B4B1B680B2B4F
:4003000043D10CE0274B03EB8403586802F07CFC0146284602F0C4FB0546013401E000240025092CEEDD1F4BD86A02F06DFC0146284602F071FD054602F01EF90022214B9E
:4003400002F06EF90022204B01F0B8FF02F07AFB1E4C84FB0034C317C3EB6413642404FB1304284602F0F4FD2346024618490DA803F026FB0DA801F085FA0F4801F082FAB9
:40038000094A1368013313600AE00B2B08DD114801F078FA104801F075FA074801F072FA1BB030BDC482FF1FD080FF1F80520000A4520000C8520000E4520000105300009E
:4003C00028530000000059400000E03F1F85EB5134530000585300006853000030B583B00023019300930021084600F009FA0021012000F005FA042000F008FF694602201C
:4004000000F064FE009800F033FE144B186B03F075FA03F09BFA124B184003D5013860F001000130441CE5B22946002000F0E8F92946012000F0E4F90022084B1A600320D7
:4004400000F0E4FE01A9022000F040FE019800F00FFE01992046FFF7B5FEC4E7C482FF1F0100008008B501F033F9012803D10121022000F04BFE01F033F9012803D1022150
:40048000084600F043FE08BD684620F007018D4619B572B6EFF311841E4B1B68DBB20F2B10D9103B23F0030202F1604202F564421168DB0003F01803E0229A400A4022FA1D
:4004C00003F306E00F2B03D1134B1B681B0E00E0002383F31188114A136801331360012B01D101F071FD62B6FFF7BCFF72B684F3118800F05FFF094A1368013B13601BB97C
:4005000001F06BFD01F02FFD62B6BDE819408546704700BF04ED00E020ED00E05C83FF1F08B5104B1868186303F0E8F901F0F6F9012803D001F0FAF9012812D103F006FA8D
:40054000094B83FB0023A3EBE07303EB4303C31A4FF47A7003FB000080B201F0A9FC01F0E7FC08BDC482FF1F56555555684620F007018D4619B572B6EFF311841E4B1B685D
:40058000DBB20F2B10D9103B23F0030202F1604202F564421168DB0003F01803E0229A400A4022FA03F306E00F2B03D1134B1B681B0E00E0002383F31188114A1368013342
:4005C0001360012B01D101F0FFFC62B6FFF7A8FF72B684F3118800F0EDFE094A1368013B13601BB901F0F9FC01F0BDFC62B6BDE819408546704700BF04ED00E020ED00E0E0
:400600005C83FF1F08B501F047FC01F02BFC01F049FC01F053FC0421022000F077FD08BD684620F007018D4601B5FFF7EBFFBDE801408546704700BF08B5002000F0C0FCEF
:4006400008BD00BF684620F007018D4619B572B6EFF311841E4B1B68DBB20F2B10D9103B23F0030202F1604202F564421168DB0003F01803E0229A400A4022FA03F306E03F
:400680000F2B03D1134B1B681B0E00E0002383F31188114A136801331360012B01D101F093FC62B6FFF7C8FF72B684F3118800F081FE094A1368013B13601BB901F08DFCCE
:4006C00001F051FC62B6BDE819408546704700BF04ED00E020ED00E05C83FF1F08B562B645F6BF52054B1A60054A136843F002031360002000F04CFFFBE700BF14E000E07A
:4007000010E000E008B500F0ADF8002000F090F801F0B0FA01F04AFB01F0FAFA00F04EF8104801F07DFB01F067F800F095FF0E4A136843F00503136001221146002000F073
:40074000C1FA16221146012000F0BCFA012000F045FA022000F042FA044801F093F800F05DFF08BD2106000010E000E090530000FEE700BF10B50C460F4B1954032818D87A
:40078000DFE800F002060A0E084601F033FA10E0084601F017FA0CE0084601F01FFA08E0084601F027FA204601F00CFA204601F015FA002010BD00BFF882FF1F08B501F075
:4007C000F3F901F085F901F017F900210320FFF7D1FF002008BD00BF70B505460E46074C14F8120001F096F914F8160001F026F914F8150001F0B6F8002070BDB0530000F8
:400800000F2910D810B50C46012803D1002000F0A3FF02E0012000F09FFF044B185D00F095FF002010BD0220704700BFB055000010B500F00F0401090020FFF7E1FF214640
:400840000120FFF7DDFF002010BD00BF08B57F210020FFF7D5FF7F210120FFF7D1FF002008BD00BF08B50020FFF7F0FF0120FFF7EDFF002008BD00BFFEE700BFF0B4002294
:40088000174611E050F82760F3B226F0FF0608E001EB420511F812406D78A5550132013BDBB2002BF4D101371F2FEBD9F0BC7047064B1B78DBB203F00701054A11701B090D
:4008C000013213704422034B1A707047CF0100496E5800407658004008B50A46002102F094FB08BD38B51925294B1D801823294A137040F2CF71023211800232137045F616
:40090000BF5102321180023213700222224B1A7008224FF040231A70032103F5007319701E4B1B78DBB21E490B701E4B1A8041F25122023B1A8000240CE01B4B1B7803F0BB
:40094000010343EA440404F003044FF4F07001F0C3FB013D0DB1032CEFD115B90320FFF78BFF124B4FF480721A8007221A7000220F490A704820023108701A700222033B83
:400980001A700C4A137843F00703137038BD00BF80400040824000400043004008010049A146004022420040254200400440004006400040A243004008B502F01BFB08BD56
:4009C00038B572B600240CE0354D630019194A0011462A44084691882858FFF77DFF0134E4B2082CF0D900240CE02D48A20011194B000344B3F84020D96B986BFFF7DCFF85
:400A00000134E4B2012CF0D926494FF09040FFF735FF254A137843F0020313701032137843F002031370214C237843F040032370A2F58632513A137843F0100313700822A7
:400A40001B491C48FFF7B8FF0A221B491B48FFF7B3FF08221A491B48FFF7AEFF08221A491A48FFF7A9FF082219491A48FFF7A4FF194A137843F008031370184D61232B708C
:400A8000FFF730FF81232B700122154B1A70FFF70FFF0E2221461348FFF78EFF38BD00BFC05500008000004803500140A043004074070048025100407C070048C051004092
:400AC000880700481251004090070048225100409807004832510040224300400048004004000840B043004008B502F057FA03680C2B00D1FEE7FEE708B5094B1A68104470
:400B0000084BC31AB3F5007F02DC054B186005E002F044FA0C2303604FF0FF32104608BDD480FF1F488EFF1F08B5104E104D16E029686B68AC68002204E051F8040B43F8A1
:400B4000040B0432A242F8D1E868002203E0002143F8041B04328242F9D11035013E002EE6D102F021FAFFF7B9FDFEE701000000F859000008B5104A104B1A60104A1368D5
:400B800043F40073136000230AE0032B03D80D4A52F8231000E00C490C4A42F8231001332F2BF2D90A4B1A780A4B1A70074A0A4B1A60FFF705FF08BD0004FA050CED00E05C
:400BC00014ED00E000000000E90A00000080FF1FBC760040C080FF1F08ED00E038B5EFF3108572B603284ED82D4B53F82030002B4BD02B4A013B42F820302A4B53F820305D
:400C0000032B07D10222274B43F820200022264B43F8202000F03EFC244B1B68002B36D1234B1C6800F014FCB0F1FF3F31D0214B53F82020204B1B689A422CD9B4F1FF3FC6
:400C400003D00221174A42F824101C4A52F820201343194A13600022124B43F8202000F0B3FB174B53F820304BB10024144B43F8204040F0004001F0B9F920460CE001F08E
:400C8000B5F9002008E0032006E0042004E0002002E0002000E0002085F3108838BD00BF1881FF1FBC81FF1F1C83FF1F5C83FF1FA881FF1FB05700003483FF1F94570000AD
:400CC000FC82FF1FF8B5EFF3108472B6012825D800EB4005AB00184DEB5803EB4306B500164E75598D421BD34AB103EB43039E00124B1E44B3689A4214D3954214D3A9B107
:400D000003010F4DEB589BB90301EE180127EF507260013900F086F800200AE0032008E0082006E0082004E0082002E0082000E0072084F31088F8BD40570000685700004F
:400D4000548BFF1F18B108B5C368984708BD704708B508B1406800E00020032816D80C4B53F8203093B10A4A013B42F82030094B53F82030032B07D10222064B43F82020FE
:400D80000022054B43F8202000F084FB08BD00BF1881FF1FBC81FF1F1C83FF1F18B1034640689B6801E00023184603281DD80F4A52F82020CAB10E4A52F82010032914D005
:400DC00010B50C4C54F820201A4344F820200A4A52F82020134207D0012905D10222044B43F8202000F056FB10BD704774570000BC81FF1F1C83FF1F0C83FF1F80B108B536
:400E00000378012B06D013B1032B06D008BDFFF79FFF08BDFFF7C2FF08BDFFF793FF08BD704700BF30B400EB40029300214AD258214B03EBC2035C68B4F1FF3F04D11E4BD3
:400E400003EBC20250602DE01C4B03EB04139B6899420AD2184D05EBC2025060174A02EB04125B1A93601DE01C46144B03EB04139A68891ADB68B3F1FF3F05D00F4A02EBA0
:400E8000031292689142EFD2B3F1FF3F05D00B4A02EB031295686D1A9560084A02EB0414E0601C46054B03EB00108160C46030BC704700BF40570000E080FF1F548BFF1F48
:400EC00038B5394A02EBC0035C6852F83030013342F8303000EB40018A0034498A58934203D90022304B43F83020B4F1FF3F59D02F4B03EB04139B68002B4ED1214600E089
:400F000019462B4B03EB0113DB68B3F1FF3F05D0274A02EB03129268002AF1D0244A02EB01114FF0FF32CA601F4A02EBC0004360B3F1FF3F07D01E4A02EB03139A68013A67
:400F40009A6000E02C4604EB44029300194A13441B7A7BB904EB44029300164A13445A68154B53F8223003EB83039A0013481044FFF744FF0E4B03EB0413DD68596821B170
:400F800001392046FFF74EFF03E024010022084B1A51B5F1FF3FD5D138BD054A02EB0414013BA36038BD00BFE080FF1F68570000548BFF1F405700006057000018570000A9
:400FC00038B5EFF3108572B6002838D1FFF778FF204B1B68002B34D11F4B1C6800F038FAB0F1FF3F2FD01D4B53F820201C4B1B689A422AD9B4F1FF3F03D00221194A42F889
:401000002410194A52F820201343154A13600022144B43F8202000F0D7F9144B53F820304BB10024114B43F8204040F0004000F0DDFF20460AE000F0D9FF002006E003201D
:4010400004E0002002E0002000E0002085F3108838BD00BF5C83FF1FA881FF1FB05700003483FF1FBC81FF1F94570000FC82FF1FEFF3108372B6114A1168114A126882B923
:40108000B1F1FF3F0FD00F4A52F821206AB110B40D4C54F8212022EA000044F82100002007E0022002E0022000E0012083F31088704783F3108810BC704700BFA881FF1FD5
:4010C0005C83FF1F745700001C83FF1F03280FD80B4B53F820306BB10A4B53F82030032B0AD059B1084B53F820300B60002070470320704701207047072070470E207047A5
:4011000074570000BC81FF1F1C83FF1F38B5EFF3108472B6032853D8324B53F82030002B50D0314B53F82030032B4DD02F4D55F820200A4345F820202D4A52F820201142FF
:4011400044D0012B44D10222274B43F8202000F0A1F9284B1B68002B3CD1274B1D6800F077F9B0F1FF3F37D0244B53F82020244B1B689A4232D9B5F1FF3F03D002211A4A03
:4011800042F825101F4A52F8202013431C4A13600022154B43F8202000F016F91A4B53F820304BB10025184B43F8205040F0004000F01CFF284612E000F018FF00200EE083
:4011C00003200CE001200AE0072008E0002006E0002004E0002002E0002000E0002084F3108838BD74570000BC81FF1F1C83FF1F0C83FF1F5C83FF1FA881FF1FB0570000BB
:401200003483FF1F94570000FC82FF1F38B5EFF3108472B6364B1D68364B1B68002B5DD1B5F1FF3F5CD0344B53F82530002B59D0324B53F82530034256D1314B43F825007C
:401240000122304B43F825202F4B53F825002F490B6823EA00030B602D4B43F825202D4B53F82520224B1A6000F0F2F8B0F1FF3F06D0294B53F82020244B1B689A420DD8D8
:401280001B4B1868B0F1FF3F03D000221D4B43F8202040F0004000F0A9FE1AE00021194A42F82010184A52F820201343174A136000F08AF8164B53F8203043B10022144BA9
:4012C00043F8202040F0004000F090FE01E000F08DFE00200A4B43F8250006E0022004E0022002E0012000E0002084F3108838BDA881FF1F5C83FF1F745700001C83FF1F73
:401300000C83FF1FBC81FF1F945700003483FF1FFC82FF1FAC81FF1FB057000008B500F053F8084B53F8203043B10022054B43F8202040F00040044B186008BD024B18606F
:4013400008BD00BFFC82FF1F6083FF1F10B500F07FF8124B1B68B0F1FF3F1AD0104A52F82010104A1268914213D9B3F1FF3F03D002240D4941F8234000210B4B43F8201061
:401380000A4B53F820301A43064B1A60FFF7C6FF10BD43F00043064A136010BDA881FF1FB05700003483FF1FBC81FF1F945700006083FF1F034B1B6813B10022014B1A60A0
:4013C000704700BF5083FF1FF0B4184B19880B0A174AD356B3F1FF3F01D1535601E008335BB2144D55F82320134850F82200134E56F8224045F82340114D2F6846F822708D
:401400002A60B4F1FF3F09D10E4A42F82340012202FA03F321EA0301044B19800A4B19680A4A42F820101860F0BC70473083FF1F0C5600006881FF1F348BFF1FF880FF1F48
:401440002C83FF1F2881FF1FA881FF1FAC81FF1F0C4B1A88130A0C49CB56B3F1FF3F01D18B5601E008335BB2B3F1FF3F06D0074A52F82320064B53F8220070474FF0FF3083
:40148000704700BF3083FF1F0C5600006881FF1F348BFF1F30B4144B53F82020134C2368134951F823502560124C44F823004FF0FF3441F82340104951F82210A1420AD1ED
:4014C0000E4951F820400E480188214301800D4941F8223002E0064840F82130064941F8223030BC704700BF0881FF1F2C83FF1FF880FF1F348BFF1F2881FF1FB05700009D
:401500003083FF1F6881FF1F10B150F8210070474FF0FF30704700BF0122014B1A60FEE75883FF1F70B50546124B53F8306000241CE0104B03EBC50321465868FFF7E4FF6E
:401540000D4A52F82030013B42F820300B4B53F82030032B07D10222084B43F820200022074B43F82020FFF795FF0134B442E0D370BD00BF0C5700001881FF1FBC81FF1F13
:401580001C83FF1F18B908B5FFF7CCFF08BD7047194B1A4ADA621A4A9A631A4ADA63EFF3108272B6184B1B6813BB10B5044600F053F8164B1C600122134B1A602046FFF7CF
:4015C000E1FFFFF745FFB0F1FF3F0ED0104B53F82030104A11680B43136000220E4B43F82020FFF7F1FE00F001FD62B6FFF794FF82F31088072070470080FF1FAD1F0000CB
:40160000711F0000450600005883FF1F748BFF1F945700003483FF1FBC81FF1F08B5EFF3108272B6094B1968094B1B6833B94FF0FF30084B43F82100002000E0022010B9A5
:40164000084600F02CFD82F3108808BDA881FF1F5C83FF1FE880FF1F70B5174B1E68EFF3108572B600F072FC144A136843F07F431360134BB3640421022000F04FF8114CCC
:40168000236843F0040323600F4B73640321012000F044F8236843F0020323600B4BC6F884300421112000F039F8236843F40033236085F3108870BD08ED00E020ED00E044
:4016C0006D05000000E100E08904000021060000024B1878C0F3C000704700BF01510040024B1878C0F30010704700BF0151004001BE704770B504460E46074B1D681F28AC
:4017000002D90020FFF7F4FF04F01F04103455F8240045F8246070BD08ED00E038B504460D46072902D90020FFF7E2FF1F2C02D90020FFF7DDFF04F01F0000F1604000F5F9
:4017400064406D01EDB2057038BD00BF014B1870704700BF77650040044A137803F0DF03400100F020001843107070473051004008B572220B4B1A70202203331A700A4951
:401780000020FFF7B7FF07210020FFF7C7FF0622064B1A70472210331A700222B03B1A7008BD00BF84650040A91800002765004010B500F099FC04460D4A137843F0200381
:4017C00013700332137843F010031370A2F58072137843F0100313700123064A1360A2F5C072136000F08CF8204600F081FC10BD9465004080E200E008B5054B1B7823B9D2
:40180000FFF7B6FF0122024B1A70FFF7D1FF08BD3C83FF1F164B99785B78DBB2994205D25A1E914214BF0022012204E0CA1AC72A14BF00220122002AECD1994207D10D4BF1
:401840001B7813F0040F02D10B4B18707047C72900D90021094B58540131054B9970054B1B7813F0020F02D00122054B1A6070473C83FF1F6764004047640040788DFF1F7F
:4018800000E200E038B5074B1B782BB938BDFFF7C1FF0134A4B201E005460024285D0028F5D138BD3C83FF1F13E0104B1B78DBB2C72B02D900220D4B1A700C4A1378DBB238
:4018C0000B49CB5CDBB20B490B7013780133DBB21370064B1B78DBB2074A1278934204D0064B1B7813F0040FDFD070473D83FF1F788DFF1F476400403E83FF1F6764004017
:40190000054A137843F0010313701032137843F001031370704700BFA2430040024B1878C0F34010704700BF01510040024B1878C0F38000704700BF31510040024A1378EA
:4019400043F08003137070477C640040014B1870704700BF0D640040014B1870704700BF4D640040014B1870704700BF2D640040014B1870704700BF8D640040014B1878AF
:40198000704700BF6D640040014B1878704700BF5D64004008B501E0FFF7F6FFFFF7EEFF10F0100FF8D108BD10B5114A137803F0C00343F0090313700E4C237843F00103E5
:4019C0002370FF20FFF7C2FFFF20FFF7C5FF7F20FFF7C8FF0020FFF7CBFF00F085FB237843F01003237000F083FBFFF7D3FF10BD7C6400409D64004008B5054B1B7823B9A5
:401A0000FFF7D2FF0122024B1A70FFF797FF08BD4083FF1F024A137843F080031370704774640040014B1870704700BF04640040014B1870704700BF44640040014B1870DC
:401A4000704700BF24640040014B1870704700BF84640040014B1878704700BF64640040014B1878704700BF5464004008B501E0FFF7F6FFFFF7EEFF10F0100FF8D108BDF9
:401A800010B5114A137803F0C00343F0090313700E4C237843F001032370FF20FFF7C2FFFF20FFF7C5FF7F20FFF7C8FF0020FFF7CBFF00F019FB237843F01003237000F0F1
:401AC00017FBFFF7D3FF10BD746400409464004008B5054B1B7823B9FFF7D2FF0122024B1A70FFF797FF08BD4183FF1F024A137843F08003137070477D640040014B1870C3
:401B0000704700BF0C640040014B1870704700BF4C640040014B1870704700BF2C640040014B1870704700BF8C640040014B1878704700BF6C640040014B1878704700BFFD
:401B40005C64004008B501E0FFF7F6FFFFF7EEFF10F0100FF8D108BD10B5114A137803F0C00343F0090313700E4C237843F001032370FF20FFF7C2FFFF20FFF7C5FF7F201C
:401B8000FFF7C8FF0020FFF7CBFF00F0ADFA237843F01003237000F0ABFAFFF7D3FF10BD7D6400409C64004008B5054B1B7823B9FFF7D2FF0122024B1A70FFF797FF08BD64
:401BC0004283FF1F044A137803F0FE0300F0010018431070704700BF20510040044A137803F07F03C001C0B218431070704700BF00510040044A137803F0BF03800100F0E0
:401C0000400018431070704700510040024A137843F080031370704775640040014B1870704700BF05640040014B1870704700BF45640040014B1870704700BF2564004028
:401C400008B50B4A137803F0C00343F0090313702032137843F001031370FF20FFF7DEFFFF20FFF7E1FF0020FFF7E4FF08BD00BF7564004008B5054B1B7823B9FFF7E0FFEA
:401C80000122024B1A70FFF7C1FF08BD4383FF1F014B1878704700BF25640040014B1878704700BF45640040024A137843F080031370704776650040014B1870704700BF49
:401CC00005650040014B1870704700BF45650040014B1870704700BF2565004008B50B4A137803F0C00343F0090313701F32137843F001031370FF20FFF7DEFFFF20FFF740
:401D0000E1FFFF20FFF7E4FF08BD00BF7665004008B5054B1B7823B9FFF7E0FF0122024B1A70FFF7C1FF08BD4483FF1F014B1878704700BF25650040014B1878704700BF13
:401D400045650040024A137843F080031370704776640040014B1870704700BF06640040014B1870704700BF46640040014B1870704700BF2664004008B50B4A137803F0CC
:401D8000C00343F0090313702032137843F001031370FF20FFF7DEFFFF20FFF7E1FF0020FFF7E4FF08BD00BF7664004008B5054B1B7823B9FFF7E0FF0122024B1A70FFF748
:401DC000C1FF08BD4583FF1F014B1878704700BF26640040014B1878704700BF46640040024B1B68C3F88400704700BF08ED00E04001C0B2014B1870704700BF11E400E0F4
:401E00004FF40032014B1A60704700BF00E100E04FF40032014B1A60704700BF80E100E010B50446FFF7F4FF2046FFF7D9FF0720FFF7DEFFFFF7E4FF10BD00BF084A1378D6
:401E400043F0010313701032137843F00103137002F64D32137843F001031370704700BFA3430040084A137803F0FE031370A2F65D32137803F0FE0313701032137803F08C
:401E8000FE031370704700BF004F0040014B1870704700BF034F0040014B1878704700BF034F0040014B188880B27047044F0040014B1880704700BF044F0040014B1880A0
:401EC000704700BF064F004008B5164A137803F0010313700232137803F0FC031370124B1A7802F0CF021A701A7842F030021A701A7802F0F0021A701A7842F00F021A7066
:401F00000A4A137843F00103137040F2E730FFF7CFFF40F2E730FFF7D1FF0820FFF7B6FF08BD00BF004F00400B4F0040014F004008B5054B1B7823B9FFF7C6FF0122024B35
:401F40001A70FFF77BFF08BD4683FF1F18484FF47F0102680A43026016486FF07F4102680A400260704714484FF080510160704772B611484FF000610160FFF7E7F90F4802
:401F8000006800F0D5F858B10C4800684FF080730B4A0C490FB40FB46FF00600004700BF6FF0060062B6004762B600DF08B0704720ED00E01CED00E004ED00E06083FF1F98
:401FC000ED1F0000A91F0000EFF30880054908600548006880F3088870470248006880F308887047F481FF1FE881FF1F411C8900154A11440968154A136899421AD0F0B4AA
:4020000044464D4656465F46F0B400B5104C9B002344EFF308851D60116089002144096881F3088802BC8E46F0BCA046A946B246BB46F0BC002806DB00B500F06DF802BC42
:402040008E46FFF7D3BF7047E05700003883FF1FEC81FF1FF0B444464D4656465F46F0B400B5EFF3038308B48000174901440968164A0244EFF30883136088471448804725
:4020800004BC4FF08070024382F3038801BC8646F0BCA046A946B246BB46F0BC704780000A4901440A6882F3088804BC4FF08070024382F3038808BC9E46F0BCA046A9469A
:4020C000B246BB46F0BC7047C0570000448BFF1FF9200000000000000230800803D000BF01380046FCD17047EFF3108072B6704780F31088704700BF08B572B6014B186895
:40210000FFF7CDFFA881FF1F08B5024B1868FFF7A1FF08BDA881FF1F08B562B6FFF7F4FF72B600F041F8014B186808BD6083FF1F00280BDA20F000400130054B53F8200080
:40214000044B1B68181A18BF0120704701207047E05700003883FF1F054B53F82020054B53F820309A4201D101207047002070471881FF1F8457000008B5FFF725F9084BEB
:4021800053F8203043B10022054B43F8202040F00040044B186008BD024B186008BD00BFFC82FF1F6083FF1F38B5364B1C680022354B1A60354A52F82430013342F82430D4
:4021C000334B53F824502046FFF7C6FF012801D0A54204D103222F4B43F8242003E002222C4B43F824202C4B53F824102B4A136823EA010313602A4B53F82440214B1C603A
:40220000B5F1FF3F0FD0234B53F82530032B07D10222204B43F825200022224B43F825202846FFF737F9FFF713F9B0F1FF3F0BD1B4F1FF3F03D00022164B43F8242044F06C
:402240000044194B1C6038BD184B53F82020134B1B689A4208D800220E4B43F8242044F00044114B1C6038BD00210A4A42F82010094A52F820201343084A1360FFF77CFF33
:4022800038BD00BFA881FF1F5083FF1F1881FF1FE880FF1FBC81FF1F945700003483FF1FAC81FF1F1C83FF1F6083FF1FB057000081F0004102E000BF83F0004330B54FEAA3
:4022C00041044FEA430594EA050F08BF90EA020F1FBF54EA000C55EA020C7FEA645C7FEA655C00F0E2804FEA5454D4EB5555B8BF6D420CDD2C4480EA020281EA030382EA06
:40230000000083EA010180EA020281EA0303362D88BF30BD11F0004F4FEA01314FF4801C4CEA113102D0404261EB410113F0004F4FEA03334CEA133302D0524263EB43038D
:4023400094EA050F00F0A780A4F10104D5F1200E0DDB02FA0EFC22FA05F2801841F1000103FA0EF2801843FA05F359410EE0A5F120050EF1200E012A03FA0EFC28BF4CF0CB
:40238000020C43FA05F3C01851EBE37101F0004507D54FF0000EDCF1000C7EEB00006EEB0101B1F5801F1BD3B1F5001F0CD349085FEA30004FEA3C0C04F101044FEA44528B
:4023C00012F5800F80F09A80BCF1004F08BF5FEA500C50F1000041EB045141EA050130BD5FEA4C0C404141EB010111F4801FA4F10104E9D191F0000F04BF01460020B1FAC8
:4024000081F308BF2033A3F10B03B3F120020CDA0C3208DD02F1140CC2F10C0201FA0CF021FA02F10CE002F11402D8BFC2F1200C01FA02F120FA0CFCDCBF41EA0C019040A6
:40244000E41AA2BF01EB0451294330BD6FEA04041F3C1CDA0C340EDC04F11404C4F1200220FA04F001FA02F340EA030021FA04F345EA030130BDC4F10C04C4F1200220FA90
:4024800002F001FA04F340EA0300294630BD21FA04F0294630BD94F0000F83F4801306BF81F480110134013D4EE77FEA645C18BF7FEA655C29D094EA050F08BF90EA020F2D
:4024C00005D054EA000C04BF1946104630BD91EA030F1EBF0021002030BD5FEA545C05D14000494128BF41F0004130BD14F580043CBF01F5801130BD01F0004545F0FE413B
:4025000041F470014FF0000030BD7FEA645C1ABF194610467FEA655C1CBF0B46024650EA013406BF52EA033591EA030F41F4002130BD00BF90F0000F04BF0021704730B52E
:402540004FF4806404F132044FF000054FF0000150E700BF90F0000F04BF0021704730B54FF4806404F1320410F0004548BF40424FF000013EE700BF42004FEAE2014FEAA5
:4025800031014FEA02701FBF12F07F4393F07F4F81F06051704792F0000F14BF93F07F4F704730B54FF4607401F0004521F0004120E700BF50EA010208BF704730B54FF0DD
:4025C00000050AE050EA010208BF704730B511F0004502D5404261EB41014FF4806404F132045FEA915C3FF4DCAE4FF003025FEADC0C18BF03325FEADC0C18BF033202EB2F
:40260000DC02C2F1200300FA03FC20FA02F001FA03FE40EA0E0021FA02F11444C1E600BF70B54FF0FF0C4CF4E06C1CEA11541DBF1CEA135594EA0C0F95EA0C0F00F0DEF838
:402640002C4481EA030621EA4C5123EA4C5350EA013518BF52EA033541F4801143F4801338D0A0FB02CE4FF00005E1FB02E506F00042E0FB03E54FF00006E1FB03569CF05C
:40268000000F18BF4EF0010EA4F1FF04B6F5007F64F5407404D25FEA4E0E6D4146EB060642EAC62141EA55514FEAC52040EA5E504FEACE2EB4F1FD0C88BFBCF5E06F1ED8B8
:4026C000BEF1004F08BF5FEA500E50F1000041EB045170BD06F0004646EA010140EA020081EA0301B4EB5C04C2BFD4EB0C0541EA045170BD41F480114FF0000E013C00F336
:40270000AB8014F1360FDEBF002001F0004170BDC4F10004203C35DA0C341BDC04F11404C4F1200500FA05F320FA04F001FA05F240EA020001F0004221F0004110EBD370E5
:4027400021FA04F642EB06015EEA430E08BF20EAD37070BDC4F10C04C4F1200500FA04F320FA05F001FA04F240EA020001F0004110EBD37041F100015EEA430E08BF20EA6D
:40278000D37070BDC4F1200500FA05F24EEA020E20FA04F301FA05F243EA020321FA04F001F0004121FA04F220EA020000EBD3705EEA430E08BF20EAD37070BD94F0000F68
:4027C0000FD101F00046400041EB010111F4801F08BF013CF7D041EA060195F0000F18BF704703F00046520043EB030313F4801F08BF013DF7D043EA0603704794EA0C0FDA
:402800000CEA135518BF95EA0C0F0CD050EA410618BF52EA4306D1D181EA030101F000414FF0000070BD50EA410606BF1046194652EA430619D094EA0C0F02D150EA01361B
:4028400013D195EA0C0F05D152EA03361CBF104619460AD181EA030101F0004141F0FE4141F470014FF0000070BD41F0FE4141F4780170BD70B54FF0FF0C4CF4E06C1CEAB5
:4028800011541DBF1CEA135594EA0C0F95EA0C0F00F0A7F8A4EB050481EA030E52EA03354FEA013100F088804FEA03334FF0805545EA131343EA12634FEA022245EA111590
:4028C00045EA10654FEA00260EF000419D4208BF964244F1FD0404F5407402D25B084FEA3202B61A65EB03055B084FEA32024FF480104FF4002CB6EB020E75EB030E22BF54
:40290000B61A754640EA0C005B084FEA3202B6EB020E75EB030E22BFB61A754640EA5C005B084FEA3202B6EB020E75EB030E22BFB61A754640EA9C005B084FEA3202B6EB5D
:40294000020E75EB030E22BFB61A754640EADC0055EA060E18D04FEA051545EA16754FEA06164FEAC30343EA52734FEAC2025FEA1C1CC0D111F4801F0BD141EA00014FF0DC
:4029800000004FF0004CB6E711F4801F04BF01430020B4F1FD0C88BFBCF5E06F3FF6AFAEB5EB030C04BFB6EB020C5FEA500C50F1000041EB045170BD0EF0004E4EEA113122
:4029C00014EB5C04C2BFD4EB0C0541EA045170BD41F480114FF0000E013C90E645EA060E8DE60CEA135594EA0C0F08BF95EA0C0F3FF43BAF94EA0C0F0AD150EA01347FF433
:402A000034AF95EA0C0F7FF425AF104619462CE795EA0C0F06D152EA03353FF4FDAE1046194622E750EA410618BF52EA43067FF4C5AE50EA41047FF40DAF52EA43057FF421
:402A4000EBAE12E74FEA410212F5001215D211D56FF47873B3EB625212D94FEAC12343F0004343EA505311F0004F23FA02F018BF404270474FF00000704750EA013005D1CE
:402A800011F0004008BF6FF0004070474FF00000704700BF80F0004002E000BF81F0004142001FBF5FEA410392EA030F7FEA226C7FEA236C6AD04FEA1262D2EB1363C1BF3C
:402AC000D218414048404140B8BF5B42192B88BF704710F0004F40F4000020F07F4018BF404211F0004F41F4000121F07F4118BF494292EA030F3FD0A2F1010241FA03FC3B
:402B000010EB0C00C3F1200301FA03F100F0004302D5494260EB4000B0F5000F13D3B0F1807F06D340084FEA310102F10102FE2A51D2B1F1004F40EBC25008BF20F001009B
:402B400040EA03007047490040EB000010F4000FA2F10102EDD1B0FA80FCACF1080CB2EB0C0200FA0CF0AABF00EBC25052421843BCBFD0401843704792F0000F81F4000125
:402B800006BF80F400000132013BB5E74FEA41037FEA226C18BF7FEA236C21D092EA030F04D092F0000F08BF0846704790EA010F1CBF0020704712F07F4F04D1400028BFD6
:402BC00040F00040704712F100723CBF00F50000704700F0004343F0FE4040F4000070477FEA226216BF08467FEA23630146420206BF5FEA412390EA010F40F48000704712
:402C00004FF0000304E000BF10F0004348BF40425FEA000C08BF704743F0964301464FF000001CE050EA010208BF70474FF000030AE000BF50EA010208BF704711F00043DD
:402C400002D5404261EB41015FEA010C02BF84460146002043F0B64308BFA3F18053A3F50003BCFA8CF2083AA3EBC25310DB01FA02FC634400FA02FCC2F12002BCF1004FC3
:402C800020FA02F243EB020008BF20F00100704702F1200201FA02FCC2F1200250EA4C0021FA02F243EB020008BF20EADC7070474FF0FF0C1CEAD0521EBF1CEAD15392EAD6
:402CC0000C0F93EA0C0F6FD01A4480EA010C400218BF5FEA41211ED04FF0006343EA501043EA5111A0FB01310CF00040B1F5000F3EBF490041EAD3715B0040EA010062F151
:402D00007F02FD2A1DD8B3F1004F40EBC25008BF20F00100704790F0000F0CF0004C08BF49024CEA502040EA51207F3AC2BFD2F1FF0340EAC250704740F400004FF00003A5
:402D4000013A5DDC12F1190FDCBF00F000407047C2F10002410021FA02F1C2F1200200FA02FC5FEA310040F1000053EA4C0308BF20EADC70704792F0000F00F0004C02BFC8
:402D8000400010F4000F013AF9D040EA0C0093F0000F01F0004C02BF490011F4000F013BF9D041EA0C018FE70CEAD15392EA0C0F18BF93EA0C0F0AD030F0004C18BF31F088
:402DC000004CD8D180EA010000F00040704790F0000F17BF90F0004F084691F0000F91F0004F14D092EA0C0F01D142020FD193EA0C0F03D14B0218BF084608D180EA010017
:402E000000F0004040F0FE4040F40000704740F0FE4040F4400070474FF0FF0C1CEAD0521EBF1CEAD15392EA0C0F93EA0C0F69D0A2EB030280EA010C49024FEA402037D09B
:402E40004FF0805343EA111143EA10130CF000408B4238BF5B0042F17D024FF4000C8B4224BF5B1A40EA0C00B3EB510F24BFA3EB510340EA5C00B3EB910F24BFA3EB91035E
:402E800040EA9C00B3EBD10F24BFA3EBD10340EADC001B0118BF5FEA1C1CE0D1FD2A3FF650AF8B4240EBC25008BF20F0010070470CF0004C4CEA50207F32C2BFD2F1FF0385
:402EC00040EAC250704740F400004FF00003013A37E792F0000F00F0004C02BF400010F4000F013AF9D040EA0C0093F0000F01F0004C02BF490011F4000F013BF9D041EAD8
:402F00000C0195E70CEAD15392EA0C0F08D142027FF47DAF93EA0C0F7FF470AF084676E793EA0C0F04D14B023FF44CAF08466EE730F0004C18BF31F0004CCAD130F000428E
:402F40007FF45CAF31F000437FF43CAF5FE700BF4FEA4002B2F1FE4F0FD34FF09E03B3EB12620DD94FEA002343F0004310F0004F23FA02F018BF404270474FF000007047B1
:402F800012F1610F01D1420205D110F0004008BF6FF0004070474FF000007047014B1868704700BF5882FF1F0E4B70B51E460E4C0025E41AA410A54204D056F825309847D5
:402FC0000135F8E702F006FD084B094C1E46E41AA4100025A54204D056F8253098470135F8E770BDE0590000E0590000E0590000E859000010B5431E0A44914204D011F855
:40300000014B03F8014FF8E710BD03460244934202D003F8011BFAE770472DE9F04788B0149F002B1E461299B8BF03F1004327F02007B6BF1E4600232D23462F1446109D42
:40304000DDF84CA00B7003D0452F03D1013501E0032300E0022307AA049206AA03928DE828042246334600F063FD472F804602D1119BDB0728D5462F08EB050911D198F8D7
:403080000030302B0AD1002200232046314602F091F818B9C5F10105CAF80050DAF800309944002200232046314602F083F808B9302202E0CDF81C9006E0079B994503D958
:4030C000591C07911A70F8E74046079B159AC8EB0303136008B0BDE8F087034673B50029B8BF494203F8022BB4BF2D222B22092942701ADD0DF1070216460A2591FBF5F4CE
:4031000005FB1411092C01F1300102F8011D2146F4DC3031541E02F8011CB4421A460AD214F8012B03F8012BF7E71A463024214402F8024B5970101A02B070BD2DE9F04FE3
:4031400091B00C46DDF8688016461F46054601F087FA03681846099300F056FC00230E93D8F800300A90073323F0070303F1080294F81890D4F800B0C8F80020D3E90023B8
:40318000C4E91223D4F84CA0D4F848802AF000430B934FF0FF32A74B40460B9902F03CF8A0B94FF0FF32A34B40460B9902F016F860B9002200234046514602F005F810B128
:4031C0002D2384F843309C4B9C4A0AE0424653464046514602F020F8002800F09281984B984AB9F1470F8CBF90469846032323612BF0040323604FF0000A3DE0B9F1670FCD
:4032000000F08A81B9F1470F00F0868123600193636800210DF13302059002920093424653460691CDF81090CDF80CE02846FFF7F4FE09F0DF03472B804600F08481B9F1D4
:40324000650F0D9900F28D8101394A4604F150000D91FFF742FF0E9A82468318012A236100F37C812268D10700F178819DF8333013B12D2384F84330009733460FAA21462F
:40328000284600F09FF9013002D14FF0FF3096E123685A0501D4236965E0B9F1650F40F2D580D4E912010022002301F083FF78B30123654A31462846B8470130E5D00E9B01
:4032C0000D9A9A420BDB2368D80708D423689B0740F111814FF0000804F1190906E10A9B099A31462846B8470130CED04FF0000804F11A090E9B013B9845E7DA01234A4659
:4033000031462846B8470130BFD008F10108F1E70D9B002B29DC01234B4A31462846B8470130B2D00D9B23B90E9B13B92368D907CCD50A9B099A31462846B8470130A4D011
:403340004FF0000904F11A0A0D9B5B42994509DA0123524631462846B847013095D009F10109F1E70E9B4246A7E00E9AA36D9A42A8BF1A46002A914606DC4FF0000A29EA82
:40338000E97904F11A0B11E01346314642462846B8470130F1D178E701235A4631462846B84701303FF471AF0AF1010AA36DC9EB03029245F0DB08EB03090D9A0E9B9A42C1
:4033C0000FDB2368DA070CD40E9B0D9A9844C9EB08089B1A9845A8BF9846B8F1000F08DC0FE00A9B099A31462846B8470130EBD14BE743464A4631462846B84701303FF499
:4034000044AF4FF0000928EAE87804F11A0A09E00123524631462846B84701303FF435AF09F101090D9A0E9B9B1AC8EB03039945EEDB4BE7FFFFEF7F725800007658000056
:403440007A5800007E580000825800000E9A012A01DCDB0738D50123424631462846B84701303FF412AF0A9B099A31462846B84701303FF40AAFD4E912010022002301F027
:4034800099FE20B14FF0000804F11A090EE00E9B08F10102013B19E001234A4631462846B84701303FF4F1AE08F101080E9B013B9845F1DB534604F1500231462846B8478E
:4034C00001307FF403AFE0E64246012331462846B8470130EED1D8E601234A4631462846B84701303FF4D1AE08F10108E3680F9A9B1A9845F0DBE0680F9B9842B8BF184603
:403500005DE062680EA8531C0DF1340E4BF480637FF474AE062201E012B90122626075E6002106910DF133018DE80C00236005904246CDF81090CDF80CE002915346284699
:40354000FFF76BFD80460D9BD81C02DB626893421DDDA9F102095FFA89F970E60133236184E6B9F1660F14D10029636807DD216113B92268D2071DD501330B4419E013B956
:403580002268D00701D5023313E0012311E04FF067090D9B0E9A934205DB22682361D10708D5013305E0002BD4BFC3F102030123134423610D9B4FF0000AA36556E611B09B
:4035C000BDE8F08F2DE9F04791461F460A698B6806469342B8BF1346C9F8003091F843200C46DDF8208012B10133C9F800302368990642BFD9F800300233C9F8003025685C
:4036000015F0060510D104F1190A07E00123524639463046C04701301AD00135E368D9F800209B1A9D42F1DB94F843302268003318BF012392060FD5E118302081F84300BD
:403640005A1C94F845102244023382F8431003E04FF0FF30BDE8F08704F1430239463046C0470130F4D02268D9F80050E36802F00602042A08BF5D1B2269A3680CBF25EA26
:40368000E57500259342C4BF9B1AED184FF000091A344D4509D00123224639463046C0470130D5D009F10109F3E70020BDE8F0872DE9F04317460A7E85B06E2A98460646DB
:4036C0000C460C9B01F1430E00F0AE8011D8632A22D009D8002A00F0BB80582A40F0CA8081F84520834955E0642A1ED0692A1CD0C0E0732A00F0B08009D86F2A2ED0702A8D
:4037000040F0B8800A6842F020020A603EE0752A24D0782A3AD0ADE01A6801F14205111D1960136884F84230A8E021681A6811F0800F02D0111D196008E011F0400F02F175
:403740000401196002D0B2F9003000E01368002B3CDA2D225B4284F8432037E021681A6811F0800F02D0111D196007E011F0400F02F10401196001D0138800E01368227E7D
:403780005C496F2A14BF0A2208221BE078225A4984F845202268186812F0800F00F104051D6003D1550601D5038800E00368D00744BF42F0200222601BB9226822F020025A
:4037C00022601022002084F8430001E049490A226568002DA56008DB206820F0040020602BB9002D7DD175460CE0002B79D07546B3FBF2F002FB1033CB5C05F8013D0346E9
:403800000028F5D1082A0BD12368DA0708D5236962689A42DEBF302305F8013C05F1FF35C5EB0E0323612EE008681A6810F0800F496903D0101D1860136808E010F0400F0D
:4038400002F104001860136801D0198000E0196000232361754616E01A68111D1960156800216268284600F007FF08B1401B6060636804E004F1420584F842200123236109
:40388000002384F84330CDF800803B4603AA21463046FFF797FE013002D14FF0FF3026E023692A4639463046C0470130F5D023689B0710D5002504F1190907E001234A46CC
:4038C00039463046C0470130E7D00135E368039A9B1A9D42F2DBE068039B9842B8BF184605E00B7804F1420584F842308AE705B0BDE8F083845800009558000038B5124BED
:4039000005461C68A36BD3B9182000F0ADFE43F20E33A06303804AF6CD33438041F2342383804EF26D63C3804DF6EC630381052343810B23838101220023C0E90423A36B14
:4039400000221D615A6138BD5882FF1F194B10B51C68A36BD3B9182000F086FE43F20E33A06303804AF6CD33438041F2342383804EF26D63C3804DF6EC630381052343812B
:403980000B23838101220023C0E90423A16B0A4C0B6948695C43094A02FB0040A3FB02230132034443F10003C1E9042323F0004010BD00BF5882FF1F2DF451582D7F954C96
:4039C0000EB400B54FF402719CB0ADF814106FF00041049107914FF6FF711DAB02900690084853F8042BADF81610006802A9019301F038FA029B00221A701CB05DF804EB5B
:403A000003B070475882FF1F034613F8012B002AFBD1181A013870472DE9F74F03690C6980469C427FDC013C01F114074FEA840E00F1140606EB0E0357F82450019356F889
:403A400024300135B3FBF5F507EB0E09C5B34FF0000A3846B446D34650F8043B9AB205FB02A21B0C4FEA124A05FB03A392B2C2EB0B0BBCF800204FEA134A5A441FFA83FB4A
:403A8000DCF800308145CBEB134303EB224392B242EA03424FEA234B4CF8042BDCD256F80E306BB9019B043B9E421A4602D3C8F8104005E01268043B002AF8D1013CF3E708
:403AC000404600F0F4FF00282BDB304601354FF0000E57F8042B036891B2C1EB0E0E120C99B27144C2EB134303EB214389B24FEA234EB94541EA034340F8043BE9D256F8FB
:403B0000242006EB840362B9043B9E421A4602D3C8F8104005E01268043B002AF8D1013CF3E7284600E0002003B0BDE8F08F00002DE9F04F456A95B08246219CCDE90223B4
:403B400045B9102000F090FDCAF82400456085600560C560DAF82430196859B15A68012393404A608B60504600F0C9FDDAF8243000221A60039BA04A002BBDBF01232360BD
:403B8000039B0023BCBF23F000430393DDF80C80A8BF236028F000431B0D1B0593421DD142F20F73209A1360029B43B9934A944BC8F31300002814BF1846104600E09048BF
:403BC000229B002B00F04685C37813B100F1080300E0C31C229A136000F03CBDDDE90245002200232046294601F0E4FA074658B1209A01231360229B002B00F01E8581486F
:403C00001860013800F026BD12AB019313AB009322462B46504600F0C5FFC8F30A56049056B1C5F3130343F07F51204641F44011A6F2FF3611971DE0139B129E1E4406F29E
:403C40003243202B0ADD029A06F21240C3F1400322FA00F008FA03F3184304E0C3F12000029B03FA00F0FEF765FC0123A1F1F871013E11930022644BFEF71EFB58A3D3E931
:403C80000023FEF7CDFC58A3D3E90023FEF716FB044630460D46FEF75DFC55A3D3E90023FEF7BEFC02460B4620462946FEF706FB04460D46FEF7C6FE00228346002320462E
:403CC000294601F081FA58B15846FEF743FC02460B462046294601F06DFA08B90BF1FF3BBBF1160F0DD8DDE90223484901EBCB01D1E9000101F086FA30B10BF1FF3B002301
:403D000000E00123109300E01090129B9E1B731E079343BFC3F10008002307934FF00008BBF1000F06DB079BCDF82CB05B440793002705E00023CBEB0808CBF100070B939B
:403D40001E9B092B28D8052BC4BF043B1E931E9BC8BF0025A3F10203D8BF0125032B20D8DFE803F0060E0204012302E0012308E000230A931F9B002B1DDD9946059321E0D5
:403D800000230A931F9B0BEB030909F10103012B0593B8BF012315E0012500231E930A9501E001230A934FF0FF390022CDF8149012231F9206E04FF001094B46CDF81490E9
:403DC000CDF87C90DAF8244000226260042101F114029A421CD86268490001326260F6E761436F63A787D23FB3C8608B288AC63FFB799F501344D33F0000F07FA6580000EB
:403E0000AF580000835800000000F83FC05800006168504600F03EFCDAF8243020601B680693059B0E2B00F25B81002D00F05881DDE90234BBF1000FCDE90E3430DD9F4AC4
:403E40000BF00F034FEA2B1502EBC303E80618CBCDE908340CD5DDE90E01994B05F00F05D3E90823FEF706FD0324CDE9020100E00224934E6DB1E90708D5DDE90801D6E984
:403E80000023FEF7CDFBCDE9080101346D100836F0E7DDE90823DDE90201FEF7EBFC20E0CBF1000505B3DDE90E01844B05F00F0203EBC203D3E90023FEF7B2FBCDE90201F6
:403EC0007F4E2D110023022455B1EA0705D5D6E90023FEF7A5FB013401236D100836F3E71BB1CDE9020100E00224109BE3B1DDE902560022734B2846314601F065F998B1F3
:403F0000059B8BB1B9F1000F40F3E6800BF1FF330893314600226C4B2846FEF781FB0134CDE902014E4602E0059ECDF820B02046FEF710FBDDE90223FEF772FB634B00223C
:403F4000FEF7BCF9A1F1507304460C931D46D6B9DDE9020100225E4BFEF7AEF922460C9BCDE9020101F04EF9002840F03F820C99224601F10043DDE9020101F025F90028DC
:403F800040F02B82A8E00A9A4C4B711E002A49D003EBC103D3E9002300204E49FEF76AFC22462B46FEF788F9CDE90C01069CDDE90201FEF747FD0546FEF7CCFA02460B4697
:403FC000DDE90201FEF778F9DDE90C23303504F8015BCDE9020101F0F7F8002840F01D83DDE9022300203749FEF766F9DDE90C2301F0EAF8002840F0D180069BE31AB3426C
:404000006ADADDE90C0100222F4BFEF709FB0022CDE90C01DDE902012B4BFEF701FBCDE90201C4E703EBC1012246D1E900012B46FEF7F6FA069BCDE90C011D469C19DDE9F0
:404040000201FEF7FFFC0646FEF784FA02460B46DDE90201FEF730F9303605F8016BAC42CDE902014FF0000222D11A4BDDE90C01FEF724F902460B46DDE9020101F0C2F80D
:40408000002840F08B80DDE90C2300201149FEF713F902460B46DDE9020101F095F8D8B114F8013C621E302B40F0B7821446F7E7054BFEF7B5FACDE90201C0E7C058000093
:4040C000985900000000F03F0000244000001C40000014400000E03FDDE90E34CDE90234139B002B7CDBBBF10E0F79DCAB4B03EBCB03D3E900671F9B002B14DA059B002BB8
:4041000011DC40F06C810022A54B30463946FEF787FADDE9022301F06BF8059D2E46002840F05F8165E1069CDDE9028932463B4640464946FEF79EFBFEF784FC0546FEF7E1
:4041400009FA32463B46FEF76BFA0B46024649464046FEF7B1F805F1300E069B04F801EBC3EB040E059B73452DD102460B46FEF7A5F88046894602460B463046394601F08B
:4041800023F878B942464B463046394601F012F8002800F04482EB0704D440E2DDF820B000E01C4614F8012C631E392A07D1069A9A42F6D1069930220BF1010B0A701A78BC
:4041C00001321A702BE20022764BFEF729FA002200238046894600F0EDFF0028A6D01EE20A9A002A2BD01E9A012A0ADC119A12B103F2334302E0129BC3F136033D464446B2
:4042000013E0059B5D1EAF42BFBF0B9BEA1B9B180B93059BB6BF2F467D1B0025002BA7BF4446059BC3EB08040023079A01211A4450469844079200F001FB064602E03D465D
:4042400044460A9E5CB1079B002B08DDA342A8BF2346079AC3EB0808E41AD31A0793002F1DDD0A9BABB18DB131462A46504600F07FFB049A01460646504600F0E8FA04992F
:404280000890504600F03BFA089B04937A1B06D000E03A460499504600F06AFB04900121504600F0CBFA0B9B05465BB31A460146504600F05DFB1E9B0546012B18DC029BD8
:4042C00083B9039BC3F3130373B9039B23F000473F0D3F054FB1079B08F1010801330793012702E0002700E0029F0B9B73B100E000272B6905EB8303186900F052FAC0F1F7
:40430000200004E01E9B012BD9DD0B9F0120079B184410F01F0008D0C0F12003042B02DDC0F11C0002E006D018461C30079B8044034404440793B8F1000F05DD42460499BF
:40434000504600F063FB0490079B002B05DD29461A46504600F05AFB0546109B23B32946049800F0A4FB00281EDA00230A220499504600F0DBF90A9B0BF1FF3B0490002B06
:4043800000F05F81314600230A22504600F0CEF9B9F1000F06463FDC3BE000BFC05800000000144000002440059B002B2BDC1E9B022B28DDDDF81490B9F1000F11D1294610
:4043C0004B460522504600F0B1F901460546049800F06DFB00280CDC03E0354600E000252E461F9B069C6FEA030B09E03546DDF820B0069B069A5C1C312313700BF1010B04
:4044000005960026F7E00A9BDDF8149023B9069CB2E01E9B022BCFDC002C05DD31462246504600F0F3FA06469FB17168504600F031F90446326906F10C01023292000C30B5
:40444000FEF7D8FD01222146504600F0DFFA059000E00596029B069F03F00103079329460498FFF7D9FA3146044600F13008049800F01DFB059A02902946504600F033FBF0
:40448000C36802463BB901460A90049800F00FFB0A9A034600E00123114650460A9300F02EF90A9B53B91E9A42B9079A32B9B8F1390F2AD0029B002B1CDC1DE0029A002A2E
:4044C00004DB1BD11E9ACAB9079ABAB9002B13DD01220499504600F099FA2946049000F0E6FA002803DC07D118F0010F04D0B8F1390F0AD004F131087C1C0CE0002B07F170
:4045000001040BDDB8F1390F03D139233B70013756E008F1010887F800806CE0069B2746E31A4B4504F8018C3BD000230A220499504600F0FBF8059B04909E424FF00A0214
:404540004FF000033146504604D100F0EFF80646059084E700F0EAF8002306460A220599504600F0E3F8059079E700230A220499504600F0DBF8049029460498FFF74CFA73
:40458000069B00F1300804F8018BE31A4B45ECDB069B0596B9F1010FACBF4B4401331F46002601220499504600F030FA2946049000F07DFA002803DC15D118F0010F12D0E5
:4045C0003C4614F8013C621E392B09D1069B934204D10BF1010B3123069A02E01446F0E70133137007E03C4614F8013C621E302B01D11446F8E72946504600F080F8059B7C
:404600006BB12EB19E4203D03146504600F077F80599504600F073F801E0DDF820B00499504600F06CF80023209A23700BF101031360229B1BB11C6001E008480AE0069823
:4046400008E0B9F1000F3FF7E2AE1E9B022B7FF7DEAEB1E615B0BDE8F08F00BF82580000004870475C82FF1F024B0146186800F041BB00BF5882FF1F10B5C9B202449042C8
:40468000034605D01C7801308C42F8D1184610BD002010BD70B5456A04460E463DB91020FFF7E2FF6062456085600560C560656AEB6843B1636ADB6853F8260078B10268F9
:4046C00043F8262017E021220421204600F0B8FA636AE860DB68002BECD1002070BD012101FA06F56A1D9200204600F0A9FA0028F3D04660856000230361C36070BD70B5A9
:40470000446A06460D463CB91020FFF7ADFF7062446084600460C4603DB1736A6A68DB6853F82210296043F8225070BD2DE9F04106460C460D691F4601F1140E0023DEF8F6
:404740000000013381B202FB0171000C0F0C02FB007089B201EB00419D424FEA10474EF8041BECDCD7B1A3689D4212DB616830460131FFF78FFF8046226904F10C010232F0
:4047800092000C30FEF736FC21463046FFF7B7FF444604EB850301355F6125612046BDE8F081030C1B0413B90004102300E0002310F07F4F04BF0002083310F0704F04BFFE
:4047C0000001043310F0404F04BF80000233002803DB420003D5581C70471846704720207047036813F007020BD0D90722D49A074BBF5B089B08036003604CBF0120022036
:40480000704799B209B91B0C102213F0FF0F04BF1B0A0832190704BF1B090432990704BF9B080232D90702D45B0805D00132036010467047002070472020704710B50C463B
:404840000121FFF727FF01224461026110BD2DE9F74F14460A69236988469A42BEBF0B46A0461C46D8F81070D4F81090D8F80830D8F8041007EB09069E42C8BF0131FFF755
:4048800009FF00F114052B4605EB860C0022634502D243F8042BFAE704F1140208F1140102EB890301EB87070093009B0192934257D9B2F800B0BBF1000F23D08946AE466D
:4048C0004FF0000859F8044BBEF800A0A3B20BFB03A34FEA144ADEF8004043444FEA14480BFB0A84F24604EB13449BB243EA04434F454FEA14484AF8043B01D9D646E1E776
:40490000CEF80480019B0432B3F802A0BAF1000F21D02C4689462B684FF00008B9F800E0B4F802B09BB20AFB0EBEA346F04443EA08434BF8043B59F8043BB4F804E01B0CDD
:404940000AFB03E34F4503EB18434FEA134801D95C46E3E763600435A7E75CF8043D13B9013E002EF9DC066103B0BDE8F08F00002DE9F843154612F0030206460F4607D0FF
:40498000214C013A002354F82220FFF7CFFE0746AD1036D0746A3CB91020FFF765FE7062446084600460C460D6F82480D8F808404CB940F271213046FFF740FF0446002322
:4049C000C8F8080003604FF00008EB070AD5394622463046FFF73BFF814639463046FFF78EFE4F466D100CD0206808B10446ECE7224621463046FFF72AFF2060C0F8008041
:404A0000F4E73846BDE8F883885900002DE9F0470C460746914626694FEA621A56444968A368751CAB4202DA01315B00FAE73846FFF730FE002380461A4600F1140153456E
:404A400003DA41F823200133F9E72AEAEA73206901EB830319F01F0904F1140101EB800E14D0C9F1200C002208689A4600FA09F0024343F8042B51F8042B8E4522FA0CF265
:404A8000F2D8CAF8042042B1B51C06E0043B51F8042B8E4543F8042FF9D8013D3846C8F810502146FFF72BFE4046BDE8F08703690A6910B59B1A11D19200143014318318DE
:404AC0000A4453F8044D52F8041D8C4202D007D3012010BD9842F4D3002010BD184610BD4FF0FF3010BD2DE9F8430C460746114620461546FFF7DBFF061E08D1314638463B
:404B0000FFF7C8FD012303614661BDE8F883BCBF23462C4638466168BABF1D4601260026FFF7B8FD2B69C660266905F1140904F1140101EB860709EB830800F114054FF053
:404B4000000C51F8042B59F8044B93B29C44A3B2240CC3EB0C03C4EB124202EB23429BB24FEA224CC84543EA02428E4645F8042BE7D8BE450ED25EF8041B8AB26244131483
:404B800003EB114392B242EA03424FEA234C45F8042BEEE755F8043D0BB9013EFAE70661BDE8F8832DE9F3411C4601219046089E099DFFF76FFDC4F31302C4F30A5407469C
:404BC0000CB142F480120192B8F1000F19D002A840F8088DFFF705FE009B48B1019AC0F1200102FA01F10B43C2407B61019200E07B61019B002B14BF02210121BB6139618D
:404C000007E001A8FFF7EDFD019B01217B613961203034B1A4F2334404443460C0F1350009E0A0F2324007EB810330601869FFF7B8FDC0EB41102860384602B0BDE8F081E3
:404C400038B502FB01F4214600F054F8054618B122460021FEF7D9F9284638BD38B50546002944D051F8043C0C1F002BB8BFE41800F017FA1E4A1368114613B963601460E6
:404C800030E0A3420DD92268A018834201BF18685B681218226063600C6023E0A24203D813465A68002AF9D118681918A1420BD12168014458188242196013D11068526862
:404CC000014419605A600DE002D90C232B6009E021686018824201BF106852680918216062605C602846BDE8384000F0DBB938BD4C83FF1F70B5CD1C25F0030508350C2D68
:404D000038BF0C25002D064601DBA94202D90C23336046E000F0C5F9234B1C681A462146A1B10B685B1B0ED40B2B03D90B60CC18CD501EE08C420BBF63684B6813606360FC
:404D400018BF0C4615E00C464968E9E7174C23681BB9304600F07AF920602946304600F075F9431C18D0C41C24F00304A0420DD12560304600F096F904F10B00231D20F018
:404D80000700C31A0ED05A42E25070BD211A304600F05CF90130EBD10C233360304600F081F9002070BD00BF4C83FF1F4883FF1F2DE9F0478E6882469E420C4691469846DD
:404DC0003ED88A8912F4906F3AD02568096902236F1A656905EB450595FBF3F57B1C43449D4238BF1D4653050FD52946FFF782FF064698B13A462169FEF7FCF8A38923F40A
:404E0000906343F08003A38113E02A4600F04BF9064670B921695046FFF720FF0C23CAF80030A3894FF0FF3043F04003A381BDE8F08726613E44266046466561ED1BA56005
:404E4000464528BF464649463246206800F00EF9A36800209B1BA36023681E442660BDE8F08700002DE9F04F9DB003938B8980461C060D4616460DD50B695BB94021FFF797
:404E800039FF2860286118B90C23C8F80030CDE040236B610023099320238DF82930DFF89CB130238DF82A3037463C4614F8013B1BB9B7EB060910D003E0252BF9D0274692
:404EC000F3E74B46324629464046FFF771FF013000F0A780099B4B4409933B78002B00F0A08000234FF0FF3204930793059206938DF853301A930126052221784E48FFF753
:404F0000BBFB671C049B38B14B4A3C46801A06FA00F018430490EFE7D90644BF20228DF853201A0744BF2B228DF8532022782A2A03D0079A00210A200BE0039A111D1268E8
:404F40000391002A10DA524243F00200079204900BE027463B780134303B092B03D800FB02320121F5E701B107923B782E2B1ED17B782A2B0AD1039B02371A1D1B6803921D
:404F8000002BB8BF4FF0FF33059310E0002319460593781C0A2407463A780130303A092A03D804FB01210123F5E703B10591032239782248FFF760FB40B14023CBEB0000CC
:404FC00003FA00F0049B013718430490397806221B487E1C8DF82810FFF74EFB88B1194B33B9039B073323F007030833039314E003AB00932A46144B04A94046FEF79EF81B
:4050000007E003AB00932A460F4B04A94046FEF74FFBB0F1FF3F824603D0099B5344099342E7AB895B0601D4099801E04FF0FF301DB0BDE8F08F00BFC0590000C659000050
:40504000CA5900003D310000B14D000038B5064C0023054608462360FBF74EFD431C02D1236803B12B6038BD408EFF1F884210B501EB020301D8421E0BE09842FBD2811825
:40508000D21AD34204D013F8014D01F8014DF8E710BD994204D011F8014B02F8014FF8E710BD70477047F8B5074615460E4621B91146BDE8F840FFF71DBE1AB9FFF7CEFD4B
:4050C0002846F8BD00F015F885420ED929463846FFF710FE044650B131462A46FDF78AFF31463846FFF7BAFD01E03046F8BD2046F8BD51F8040C0028BEBF091851F8043CD1
:40510000C0180438704700004FF0FF3C06E000BF4FF0010C02E000BF4FF0010C4DF804CD4FEA410C7FEA6C5C4FEA430C18BF7FEA6C5C1BD001B050EA410C0CBF52EA430C76
:4051400091EA030F02BF90EA020F0020704710F1000F91EA030F58BF994208BF90422CBFD8176FEAE37040F0010070474FEA410C7FEA6C5C02D150EA013C07D14FEA430C88
:405180007FEA6C5CD6D152EA033CD3D05DF8040B704700BF8446104662468C461946634600E000BF01B5FFF7B7FF002848BF10F1000F01BD4DF808EDFFF7F4FF0CBF012070
:4051C00000205DF808FB00BF4DF808EDFFF7EAFF34BF012000205DF808FB00BF4DF808EDFFF7E0FF94BF012000205DF808FB00BF4DF808EDFFF7CEFF94BF012000205DF874
:4052000008FB00BF4DF808EDFFF7C4FF34BF012000205DF808FB00BF4FEA410C7FEA6C5C02D150EA013C0AD14FEA430C7FEA6C5C02D152EA033C02D14FF0000070474FF083
:405240000100704700000000FF000000F40100FF0000F4010000FF00F401000000006400FFFFFF006400000000006400FFFFFF006400000000006400FFFFFF00640000004B
:405280005265616374696F6E20746573742070726F6772616D20726F756E64202564200A000000004772656174202D20636F727265637420627574746F6E2070726573734B
:4052C0006564200A000000005265616374696F6E2074696D6520696E206D733A2025640A000000003D3D3D3D3D3D3D3D3D3D3D3D3D3D3D3D3D3D3D3D3D3D3D3D3D3D3D3D27
:405300003D3D3D3D3D3D3D3D3D3D3D3D3D3D0A0057726F6E6720627574746F6E2070726573736564200A0000546F6F20536C6F77200A0000417667207265616374696F6E50
:405340002074696D6520696E206D732025642E2530326420200A000047616D65206F7665722E2E2E2E0A000052657365742074686520626F61726420746F20737461727466
:405380002061206E65772067616D65200A00000057656C636F6D6520746F20746865205265616374696F6E2047616D65200A000000000100010001000100010001000100CE
:4053C0000100020002000200020002000200020002000200020002000200030003000300030003000300030004000400040004000400040005000500050005000500060048
:40540000060006000600070007000700080008000800090009000A000A000A000B000B000C000C000D000D000E000F000F00100011001100120013001400150016001700DC
:40544000180019001A001B001C001D001F0020002100230024002600280029002B002D002F0031003400360038003B003D0040004300460049004C004F00530057005B00EB
:405480005F00630067006C00700075007B00800086008C00920098009F00A600AD00B500BD00C500CE00D700E100EB00F50000010B011701240130013E014C015B016A01DE
:4054C0007A018B019C01AF01C201D601EA01000217022E02470261027C029802B502D402F402160339035D038303AB03D50300042D045D048E04C204F80430056B05A80544
:40550000E8052B067106BA0606075607A90700085B08B9081C098309EF09600AD50A500BD10B560CE20C740D0D0EAC0E520F0010B510731138120713DF13C014AB15A116A6
:40554000A117AD18C419E91A1A1C581DA51E00206B21E52271240E26BD278029562B412D422F5A318933D1353338B03A493D0040D542CB45E2481C4C7A4FFF52AC56825ADE
:40558000845EB3621267A26B66706075927A0080AA85958BC3913798F59EFEA558AD04B508BD66C524CE44D7CCE0C0EA25F5FFFF3F065B4F666D7D077F6F77FF39BF7971DA
:4055C000004F00400C00405100403000F0510040100000000140001080140140000200170140000500400140000A004C014000020050014020000000001401407406004817
:40560000800080160140F40600488000FF0001010202020203030303030303030404040404040404040404040404040405050505050505050505050505050505050505058C
:4056400005050505050505050505050506060606060606060606060606060606060606060606060606060606060606060606060606060606060606060606060606060606B6
:405680000606060606060606060606060707070707070707070707070707070707070707070707070707070707070707070707070707070707070707070707070707070736
:4056C00007070707070707070707070707070707070707070707070707070707070707070707070707070707070707070707070707070707070707070707070707070707EA
:40570000070707070707070707070707010000001457000000000000030000000000000000000000B5010000FFFFFFFF00000000030000000000000000000000FFFFFFFFF5
:4057400000000000000000000000000000000000010000000000000000000000010000000000000001000000102700000100000000000000000000000000000001000000ED
:405780000000000001000000010000000100000001000000800000000100000010000000040000000100000002000000040000000100000001000000100000000400000033
:4057C0000507000071070000DD03000085000000092100000921000009210000092100000000000000000000000000000100000000000000616C726D5F316D7300000000FB
:40580000616C726D5F32326D7300000065765F627574746F6E31000065765F627574746F6E32000065765F52655374617274427574746F6E0000000074736B5F696E69742A
:405840000000000074736B5F6261636B67726F756E64000074736B5F67616D650000000074736B5F617263616469616E000000004300494E4600696E66004E414E006E611F
:405880006E00300030313233343536373839414243444546003031323334353637383961626364656600496E66696E697479004E614E00504F534958002E0000000000003E
:4058C000000000000000F03F000000000000244000000000000059400000000000408F40000000000088C34000000000006AF8400000000080842E4100000000D012634147
:405900000000000084D797410000000065CDCD41000000205FA00242000000E876483742000000A2941A6D42000040E59C30A2420000901EC4BCD64200003426F56B0C434F
:405940000080E03779C3414300A0D8855734764300C84E676DC1AB43003D9160E458E143408CB5781DAF154450EFE2D6E41A4B4492D54D06CFF08044F64AE1C7022DB54479
:40598000B49DD9794378EA4405000000190000007D000000000000000080E03779C34143176E05B5B5B89346F5F93FE9034F384D321D30F94877825A3CBF737FDD4F157541
:4059C000232D302B2000686C4C0065666745464700000000F8B500BFF8BC08BC9E4670474D000000750B0000F8B500BFF8BC08BC9E46704729000000085A0000C880FF1FFC
:405A0000D0010000B00B0000000000000100000001000000488EFF1FF45700000058000000000000FFFFFFFFFFFFFFFFFFFFFFFFFFFFFFFFFFFFFFFF010000000200000052
:405A400003000000FFFFFFFF0000000000000000040000000200000001000000010000000100000001000000FFFFFFFFFFFFFFFFFFFFFFFFFFFFFFFFFFFFFFFFFFFFFFFF35
:405A8000FFFFFFFFFFFFFFFFFFFFFFFFFFFFFFFFFFFFFFFFFFFFFFFFFFFFFFFFFFFFFFFFFFFFFFFFFFFFFFFFFFFFFFFFFFFFFFFFFFFFFFFFFFFFFFFFFFFFFFFFFFFFFFFF26
:405AC000FFFFFFFFFFFFFFFFFFFFFFFFFFFFFFFFFFFFFFFFFFFFFFFFFFFFFFFFFFFFFFFFFFFFFFFFFFFFFFFFFFFFFFFFFFFFFFFFFFFFFFFFFFFFFFFFFFFFFFFF03000000DF
:405B00000300000003000000030000000C580000185800002458000038580000445800005458000060580000788DFF1F000000000C8BFF1F000000000000000000000000A4
:405B4000000000000000000000000000000000000000000000000000705800000000000000000000000000000000000000000000000000000000000000000000000000005D
:405B8000000000000000000000000000000000000000000000000000F881FF1FB9580000C5590000C5590000C5590000C5590000C5590000C5590000C5590000C55900004D
:405BC000C5590000FFFFFFFFFFFFFFFFFFFFFFFFFFFF0000000000000000000000000000000000000000000000000000000000000000000000000000000000000000000095
:405C00000000000000000000000000000000000000000000000000000000000000000000000000000000000000000000000000000000000000000000000000000000000064
:405C40000000000000000000000000000000000000000000000000000000000000000000000000000000000000000000000000000000000000000000000000000000000024
:405C800000000000000000000000000000000000000000000000000000000000000000000000000000000000000000000000000000000000000000000000000000000000E4
:405CC00000000000000000000000000000000000000000000000000000000000000000000000000000000000000000000000000000000000000000000000000000000000A4
:020000040003F7
:0200000480007A
:40000000024F004008520040046400400265004002030140660401403A0501405E06014040070140060B01405C0C01403A0D01401B1401404A15014009160140401701401D
:4000400002190140031B0140044001400E41014007420140094301400244014009450140074601400147014003480140054901400D4C01400A4D01400550014001510140F6
:4000800001200A36008001C0086509591021112960806440840D870F8C0D8D0D847287388610E44006200A080C010D080E060F05100C12031410150817031A201B061D1081
:4000C0001F012203260C28012A0E2B022D062F09300F321033073420351839203A023B083E144030410245D046204701481A49FF4AFF4BFF4DA04F04501852805405580428
:4001000059045A045B045D115F01604062C06440654066C068C06AC06CC06EC0820286018A0495029A01A208A604AB03B004B102B208B402B501B601C020C105C501C602B5
:40014000C805C9FFCAFFCBFFCDA0CF04D018D280D804D904DA04DB04DC11DD11DF01E040E2C0E440E540E6C0E8C0EAC0ECC0EEC00020012002020320041406400A600B080C
:400180000F08108012281508168019041A441B021C941D201E011F0C21102228278829202B022C083080322837083B404328452049014F88500851045320574059015A04E4
:4001C0005B807280764081048840A610C077C24EC43ECA2CCC4ECE08D026D210D60BE401EA02EC2002020A011A011C04280432013402360438803E40402041044501460232
:40020000480549FF4AFF4BFF4DA04F045018528058045A045B045C015D115F01604062C06440654066C068C06AC06CC06EC08409861087018A038B108C108D068F18909C26
:40024000922294149506970899069B089CF09E0C9F0AA120A260A620A701A8ECAA11AD14AF08B0C0B11EB21FB320B420B501B802BB02BE11BF14C051C106C5ECC70BC81313
:40028000C9FFCAFFCBFFCEF0CF44D00CD401D604D804D904DA04DB04DF01E6C0EA40EB0201800210030805100780080109080A420E020F0810B01208160418401A201B28E4
:4002C0001D301E011F04222723402801290930A0320839283A103B40414045204640482049014A0A4F0851085640585059015A0860807780848086019120924096209740AA
:40030000A209A490A612AE01B601C057C2CDC44ECA0BCC0ECE0ED0A8D20CD60FD801E810A810AF20B202E421E804EC200201050206021104120417021B0126042B012D0440
:4003400030013102320433043402350139083F144060410245D046104702481A49FF4AFF4BFF4DA04F04501852805405580459045A045B045C115D115F01604062C06440EE
:40038000654066C068C06AC06CC06EC086018A018E08920498029B01A602AA08B002B201B404B501B608BE40C040C106C5D0C610C702C81AC9FFCAFFCBFFCDA0CF04D01809
:4003C000D280D405D804D904DA04DB04DC11DD11DF01E040E2C0E440E540E6C0E8C0EAC0ECC0EEC0002003260620074009200A400D02102012081610182019701A801B2006
:400400001D021E141F022120244027282D802F0830203510360237043E044302460449014A084D215020521854105624570859095A805C405D015F0872407740821089480F
:400440008D80C037C21AC426CA30CCE4CE40D021D224D6DBE001E440AE01B001C040C106C620C701C818C9FFCAFFCBFFCDA0CF04D018D804DA04DC01DD01DF01E040E2C00E
:40048000E440E540E6C0E8C0EAC0ECC0EEC0006402040A840B111081121013201780184119111A101D02202422112306280129112A043250330439443B114045450248403D
:4004C00049904F20510457145B08660369446B147090710C72067320880189018E1092809311942095099606970499809A109B889C019D159E019F16A440A50AA704AA080B
:40050000AB20AC04AF01B340B740C007C20FC48FCA0FCC0ECE0FD08DD22CD602E610E803EC0312011A013201528058045B045C015D105F0100800101021809080A850D02C5
:400540000F0811401201131619881A811B201E20231929152A50300132403314382039403B0540404810508051405A0262A068046B617004720A734077808101828883209B
:40058000864087108C048E06904095889D089E04A220A490A610AC40AF20B010B180B304C00FC25FC40FCA0FCC0FCE0FD001D601D80CE410E050E880E6A0E833EC0330103B
:4005C00033023720CC70042008010F206208640884088C109C109F20A702C080C230D8C0E6109C10A310A608A702AF20B001EA40841087029C10A702AE08B710E210E6409E
:40060000EA107740DE0453025A045C20660482049F40D401D606D80183408A0496049C209F40AB02E4049C2066048F04D88003048E049E049F04C040500557105B015F41DD
:40064000601066088C05B020D407D607D803E00AE80110A088A0AB11AE08AF01B340B410C408E605E80C00030A030E0210031A03003F000000120004005C0300030010035F
:4006800003400C000C0003000F5C00000400000302002003080300000F0700180C030000010920240F03001C0040302008002200000044004206050001C0000E12FFFFFF58
:4006C00062A0F0410C000000000002120404040400000001000000000000400200103010001010120000000000000000000000000000000004020001BF000008A710180035
:40070000002040003C018202180300000803000000344008000C0430003023001C3CA100103400081F008038400438030800020800001010040000000004000000FF07FF89
:400740004020F0050800000018000000040404040000000140A840200000000000000000000000000000000000000000000000000000000038C0C000C000000080004080F3
:40078000800080000000000000FFFF00FF0000000039390039000000042020000000000000000000000000000000000000000000000000000000000000000000000000004D
:4007C00000000000000000000000000000000000000000000000000000000000000000000000000000000000000000000000000000000000000000000000000000000000F9
:4008000000000000000000000000000000000000000000000000000000000000000000000000000000000000000000000000000000000000000000000000000000000000B8
:400840000000000000000000000000000000000000000000000000000000000000000000000000000000000000000000000000000000000000000000000000000000000078
:400880000000000000000000000000000000000000000000000000000000000000000000000000000000000000000000000000000000000000000000000000000000000038
:0200000490006A
:0400000000004007B5
:0200000490105A
:04000000BC90ACAF55
:0200000490303A
:02000000C50435
:0200000490402A
:4000000000000000000000000000000000000000000000000000000000000000000000000000000000000000000000000000000000000000000000000000000000000000C0
:400040000000000000000000000000000000000000000000000000000000000000000000000000000000000000000000000000000000000000000000000000000000000080
:400080000000000000000000000000000000000000000000000000000000000000000000000000000000000000000000000000000000000000000000000000000000000040
:4000C0000000000000000000000000000000000000000000000000000000000000000000000000000000000000000000000000000000000000000000000000000000000000
:0200000490501A
:0C00000000012E16106900012E3AD56D8B
:00000001FF